:03000000020003F8
:0C000300787FE4F6D8FD75810702004A02
:0202C8004C00E8
:1001B100603700017F7F417F7F00067F7F00797973
:1001C100494F4F4949497F7F0F0F087F7F4F4F4963
:1001D10079797F7F4979780101717F0F7F7F497F2D
:0B01E1007F0F4F497F7F000036360083
:10023A00D3EF9400EE940040147DE87C03ED1D702A
:0D024A00011CED4C70F7EF1F70E61E80E305
:010257002284
:0402C3007F03DFFED8
:0102C7002214
:10025800D3EF9400EE940040147DE87C03ED1D700C
:0D026800011CED4C70F7EF1F70E61E80E3E7
:010275002266
:0601ED00C2A2EF2420FF76
:1001F300E4FEEEC39408748094805018C2A3EF54B5
:100203000164017004D2A48002C2A4EFC313FFD21D
:04021300A30E80DED8
:0102170022C4
:0A02AF00C2A21201F3D2A20202C3A0
:10021800C2A27FE01201F37F0F1201F3D2A21202F1
:10022800C3C2A27FE41201F37FFF1201F3D2A2023C
:0202380002C3FF
:0A02B900C2A27FE81201F3D2A222D4
:10028E00C2A27FE41201F3900000E0FF1201F3D24C
:04029E00A20202C3F3
:0D02A2001201EDED2430FF1201F3D2A22273
:100276001201ED12016BFF600C1201F3740129F9F2
:08028600E43AFA80EED2A22254
:0E01160090003AEFF0A3EBF0A3EAF0A3E9F0BB
:10012400E4FCA3F0C2A2ED2440FF1201F3ECC3945B
:100134000574809480501A90003BE0FBA3E0FAA37E
:10014400E0F98C82758300120184FF1201F30C80A4
:10015400DCD2A2C2A290003AE02420FF1201F3AF45
:06016400051201F3D2A216
:01016A002272
:10008F00E4F592F591F596F595F5B2F5B1C2A17F2C
:10009F0032FE120258D2A11202187FE91202AF7F6C
:1000AF00E87E0312023A120218E4FDFF1202A27B4D
:1000BF00FF7A0279C87F011202767B017A00790BF1
:1000CF007D027F021201167A0079107F0312010D53
:1000DF007A0079150D7F041201167B017A00791AC7
:1000EF000D7F051201167A00791F7F0612010D7A16
:1000FF000079240D7F071201161202B980AB7B0124
:07010F000D1201167B012215
:10000F0002008FE493A3F8E493A34003F68001F278
:10001F0008DFF48029E493A3F85407240CC8C333F2
:10002F00C4540F4420C8834004F456800146F6DFC1
:10003F00E4800B01020408102040809001B1E47E9F
:10004F00019360BCA3FF543F30E509541FFEE493B6
:10005F00A360010ECF54C025E060A840B8E493A37D
:10006F00FAE493A3F8E493A3C8C582C8CAC583CAA8
:10007F00F0A3C8C582C8CAC583CADFE9DEE780BE60
:0101EC000012
:10016B00BB010689828A83E0225002E722BBFE0292
:09017B00E32289828A83E49322C5
:10018400BB010CE58229F582E5833AF583E0225030
:1001940006E92582F8E622BBFE06E92582F8E2227A
:0D01A400E58229F582E5833AF583E4932294
:00000001FF
